{
  "address": "0xe7f1725E7734CE288F8367e1Bb143E90bb3F0512",
  "abi": [
    {
      "anonymous": false,
      "inputs": [
        {
          "indexed": false,
          "internalType": "address",
          "name": "nftAddress",
          "type": "address"
        },
        {
          "indexed": false,
          "internalType": "uint256",
          "name": "tokenId",
          "type": "uint256"
        },
        {
          "indexed": false,
          "internalType": "uint256",
          "name": "price",
          "type": "uint256"
        },
        {
          "indexed": false,
          "internalType": "address",
          "name": "owner",
          "type": "address"
        }
      ],
      "name": "NftListed",
      "type": "event"
    },
    {
      "anonymous": false,
      "inputs": [
        {
          "indexed": false,
          "internalType": "address",
          "name": "nftAddress",
          "type": "address"
        },
        {
          "indexed": false,
          "internalType": "uint256",
          "name": "tokenId",
          "type": "uint256"
        },
        {
          "indexed": false,
          "internalType": "uint256",
          "name": "price",
          "type": "uint256"
        },
        {
          "indexed": false,
          "internalType": "address",
          "name": "seller",
          "type": "address"
        },
        {
          "indexed": false,
          "internalType": "address",
          "name": "buyer",
          "type": "address"
        }
      ],
      "name": "NftSold",
      "type": "event"
    },
    {
      "inputs": [
        {
          "internalType": "address",
          "name": "nftAddress",
          "type": "address"
        },
        {
          "internalType": "uint256",
          "name": "tokenId",
          "type": "uint256"
        }
      ],
      "name": "buyNFT",
      "outputs": [],
      "stateMutability": "payable",
      "type": "function"
    },
    {
      "inputs": [
        {
          "internalType": "address",
          "name": "nftAddress",
          "type": "address"
        },
        {
          "internalType": "uint256",
          "name": "tokenId",
          "type": "uint256"
        }
      ],
      "name": "cancelListing",
      "outputs": [],
      "stateMutability": "nonpayable",
      "type": "function"
    },
    {
      "inputs": [
        {
          "internalType": "address",
          "name": "nftAddress",
          "type": "address"
        },
        {
          "internalType": "uint256",
          "name": "tokenId",
          "type": "uint256"
        }
      ],
      "name": "getListing",
      "outputs": [
        {
          "components": [
            {
              "internalType": "address",
              "name": "owner",
              "type": "address"
            },
            {
              "internalType": "uint256",
              "name": "price",
              "type": "uint256"
            }
          ],
          "internalType": "struct NFTMarketplace.Listing",
          "name": "",
          "type": "tuple"
        }
      ],
      "stateMutability": "view",
      "type": "function"
    },
    {
      "inputs": [
        {
          "internalType": "address",
          "name": "nftAddress",
          "type": "address"
        },
        {
          "internalType": "uint256",
          "name": "tokenId",
          "type": "uint256"
        },
        {
          "internalType": "uint256",
          "name": "price",
          "type": "uint256"
        }
      ],
      "name": "listNFT",
      "outputs": [],
      "stateMutability": "nonpayable",
      "type": "function"
    },
    {
      "inputs": [
        {
          "internalType": "address",
          "name": "",
          "type": "address"
        },
        {
          "internalType": "uint256",
          "name": "",
          "type": "uint256"
        }
      ],
      "name": "listings",
      "outputs": [
        {
          "internalType": "address",
          "name": "owner",
          "type": "address"
        },
        {
          "internalType": "uint256",
          "name": "price",
          "type": "uint256"
        }
      ],
      "stateMutability": "view",
      "type": "function"
    },
    {
      "inputs": [
        {
          "internalType": "address",
          "name": "nftAddress",
          "type": "address"
        },
        {
          "internalType": "uint256",
          "name": "tokenId",
          "type": "uint256"
        },
        {
          "internalType": "uint256",
          "name": "newPrice",
          "type": "uint256"
        }
      ],
      "name": "lowerPrice",
      "outputs": [],
      "stateMutability": "nonpayable",
      "type": "function"
    }
  ],
  "transactionHash": "0x5c5d24c61bef771e330ff3445cb67aba368db181435847670118a71191d78107",
  "args": [],
  "numDeployments": 1,
  "solcInputHash": "76a9a78528936b9c35382977f258054f",
  "bytecode": "0x608060405234801561001057600080fd5b50611652806100206000396000f3fe6080604052600436106100545760003560e01c806207df301461005957806388700d1c14610097578063a82ba76f146100d4578063ad05f1b4146100f0578063b2464e7e14610119578063b2ddee0614610142575b600080fd5b34801561006557600080fd5b50610080600480360381019061007b9190610eab565b61016b565b60405161008e929190610f09565b60405180910390f35b3480156100a357600080fd5b506100be60048036038101906100b99190610eab565b6101bc565b6040516100cb9190610f7f565b60405180910390f35b6100ee60048036038101906100e99190610eab565b61028c565b005b3480156100fc57600080fd5b5061011760048036038101906101129190610f9a565b6105d7565b005b34801561012557600080fd5b50610140600480360381019061013b9190610f9a565b61097b565b005b34801561014e57600080fd5b5061016960048036038101906101649190610eab565b610c6a565b005b6000602052816000526040600020602052806000526040600020600091509150508060000160009054906101000a900473ffffffffffffffffffffffffffffffffffffffff16908060010154905082565b6101c4610de2565b60008060008573ffffffffffffffffffffffffffffffffffffffff1673ffffffffffffffffffffffffffffffffffffffff16815260200190815260200160002060008481526020019081526020016000206040518060400160405290816000820160009054906101000a900473ffffffffffffffffffffffffffffffffffffffff1673ffffffffffffffffffffffffffffffffffffffff1673ffffffffffffffffffffffffffffffffffffffff16815260200160018201548152505090508091505092915050565b818160008060008473ffffffffffffffffffffffffffffffffffffffff1673ffffffffffffffffffffffffffffffffffffffff16815260200190815260200160002060008381526020019081526020016000206001015411610323576040517f08c379a000000000000000000000000000000000000000000000000000000000815260040161031a9061104a565b60405180910390fd5b60008060008673ffffffffffffffffffffffffffffffffffffffff1673ffffffffffffffffffffffffffffffffffffffff16815260200190815260200160002060008581526020019081526020016000206040518060400160405290816000820160009054906101000a900473ffffffffffffffffffffffffffffffffffffffff1673ffffffffffffffffffffffffffffffffffffffff1673ffffffffffffffffffffffffffffffffffffffff1681526020016001820154815250509050806000015173ffffffffffffffffffffffffffffffffffffffff163373ffffffffffffffffffffffffffffffffffffffff1603610453576040517f08c379a000000000000000000000000000000000000000000000000000000000815260040161044a906110b6565b60405180910390fd5b80602001513414610499576040517f08c379a000000000000000000000000000000000000000000000000000000000815260040161049090611122565b60405180910390fd5b8473ffffffffffffffffffffffffffffffffffffffff166342842e0e826000015133876040518463ffffffff1660e01b81526004016104da93929190611142565b600060405180830381600087803b1580156104f457600080fd5b505af1158015610508573d6000803e3d6000fd5b505050506000808673ffffffffffffffffffffffffffffffffffffffff1673ffffffffffffffffffffffffffffffffffffffff1681526020019081526020016000206000858152602001908152602001600020600080820160006101000a81549073ffffffffffffffffffffffffffffffffffffffff0219169055600182016000905550507fbc1697a1b2f7c414b2a33568032256eed2168db42c39dd8d45235642c2a92d238585348460000151336040516105c8959493929190611179565b60405180910390a15050505050565b82823360008390508173ffffffffffffffffffffffffffffffffffffffff168173ffffffffffffffffffffffffffffffffffffffff16636352211e856040518263ffffffff1660e01b815260040161062f91906111cc565b602060405180830381865afa15801561064c573d6000803e3d6000fd5b505050506040513d601f19601f8201168201806040525081019061067091906111fc565b73ffffffffffffffffffffffffffffffffffffffff16146106c6576040517f08c379a00000000000000000000000000000000000000000000000000000000081526004016106bd90611275565b60405180910390fd5b86600081905060008173ffffffffffffffffffffffffffffffffffffffff1663e985e9c533306040518363ffffffff1660e01b8152600401610709929190611295565b602060405180830381865afa158015610726573d6000803e3d6000fd5b505050506040513d601f19601f8201168201806040525081019061074a91906112f6565b90508061078c576040517f08c379a00000000000000000000000000000000000000000000000000000000081526004016107839061136f565b60405180910390fd5b600088116107cf576040517f08c379a00000000000000000000000000000000000000000000000000000000081526004016107c690611401565b60405180910390fd5b60008060008c73ffffffffffffffffffffffffffffffffffffffff1673ffffffffffffffffffffffffffffffffffffffff16815260200190815260200160002060008b81526020019081526020016000206001015414610864576040517f08c379a000000000000000000000000000000000000000000000000000000000815260040161085b90611493565b60405180910390fd5b60405180604001604052803373ffffffffffffffffffffffffffffffffffffffff168152602001898152506000808c73ffffffffffffffffffffffffffffffffffffffff1673ffffffffffffffffffffffffffffffffffffffff16815260200190815260200160002060008b815260200190815260200160002060008201518160000160006101000a81548173ffffffffffffffffffffffffffffffffffffffff021916908373ffffffffffffffffffffffffffffffffffffffff160217905550602082015181600101559050507f48645976acd1c1a4bc2322dfceba4fbb73dc23084fdced0c30d08e0426cfb6d08a8a8a3360405161096794939291906114b3565b60405180910390a150505050505050505050565b82823360008390508173ffffffffffffffffffffffffffffffffffffffff168173ffffffffffffffffffffffffffffffffffffffff16636352211e856040518263ffffffff1660e01b81526004016109d391906111cc565b602060405180830381865afa1580156109f0573d6000803e3d6000fd5b505050506040513d601f19601f82011682018060405250810190610a1491906111fc565b73ffffffffffffffffffffffffffffffffffffffff1614610a6a576040517f08c379a0000000000000000000000000000000000000000000000000000000008152600401610a6190611275565b60405180910390fd5b86600081905060008173ffffffffffffffffffffffffffffffffffffffff1663e985e9c533306040518363ffffffff1660e01b8152600401610aad929190611295565b602060405180830381865afa158015610aca573d6000803e3d6000fd5b505050506040513d601f19601f82011682018060405250810190610aee91906112f6565b905080610b30576040517f08c379a0000000000000000000000000000000000000000000000000000000008152600401610b279061136f565b60405180910390fd5b60008811610b73576040517f08c379a0000000000000000000000000000000000000000000000000000000008152600401610b6a9061156a565b60405180910390fd5b876000808c73ffffffffffffffffffffffffffffffffffffffff1673ffffffffffffffffffffffffffffffffffffffff16815260200190815260200160002060008b81526020019081526020016000206001015411610c07576040517f08c379a0000000000000000000000000000000000000000000000000000000008152600401610bfe906115fc565b60405180910390fd5b876000808c73ffffffffffffffffffffffffffffffffffffffff1673ffffffffffffffffffffffffffffffffffffffff16815260200190815260200160002060008b81526020019081526020016000206001018190555050505050505050505050565b81813360008390508173ffffffffffffffffffffffffffffffffffffffff168173ffffffffffffffffffffffffffffffffffffffff16636352211e856040518263ffffffff1660e01b8152600401610cc291906111cc565b602060405180830381865afa158015610cdf573d6000803e3d6000fd5b505050506040513d601f19601f82011682018060405250810190610d0391906111fc565b73ffffffffffffffffffffffffffffffffffffffff1614610d59576040517f08c379a0000000000000000000000000000000000000000000000000000000008152600401610d5090611275565b60405180910390fd5b6000808773ffffffffffffffffffffffffffffffffffffffff1673ffffffffffffffffffffffffffffffffffffffff1681526020019081526020016000206000868152602001908152602001600020600080820160006101000a81549073ffffffffffffffffffffffffffffffffffffffff021916905560018201600090555050505050505050565b6040518060400160405280600073ffffffffffffffffffffffffffffffffffffffff168152602001600081525090565b600080fd5b600073ffffffffffffffffffffffffffffffffffffffff82169050919050565b6000610e4282610e17565b9050919050565b610e5281610e37565b8114610e5d57600080fd5b50565b600081359050610e6f81610e49565b92915050565b6000819050919050565b610e8881610e75565b8114610e9357600080fd5b50565b600081359050610ea581610e7f565b92915050565b60008060408385031215610ec257610ec1610e12565b5b6000610ed085828601610e60565b9250506020610ee185828601610e96565b9150509250929050565b610ef481610e37565b82525050565b610f0381610e75565b82525050565b6000604082019050610f1e6000830185610eeb565b610f2b6020830184610efa565b9392505050565b610f3b81610e37565b82525050565b610f4a81610e75565b82525050565b604082016000820151610f666000850182610f32565b506020820151610f796020850182610f41565b50505050565b6000604082019050610f946000830184610f50565b92915050565b600080600060608486031215610fb357610fb2610e12565b5b6000610fc186828701610e60565b9350506020610fd286828701610e96565b9250506040610fe386828701610e96565b9150509250925092565b600082825260208201905092915050565b7f54686973204974656d206973206e6f74206c697374656420666f722073616c65600082015250565b6000611034602083610fed565b915061103f82610ffe565b602082019050919050565b6000602082019050818103600083015261106381611027565b9050919050565b7f4275794e66743a20596f75206f776e2074686973204e46540000000000000000600082015250565b60006110a0601883610fed565b91506110ab8261106a565b602082019050919050565b600060208201905081810360008301526110cf81611093565b9050919050565b7f4275794e66743a204e6f7420656e6f7567682045544800000000000000000000600082015250565b600061110c601683610fed565b9150611117826110d6565b602082019050919050565b6000602082019050818103600083015261113b816110ff565b9050919050565b60006060820190506111576000830186610eeb565b6111646020830185610eeb565b6111716040830184610efa565b949350505050565b600060a08201905061118e6000830188610eeb565b61119b6020830187610efa565b6111a86040830186610efa565b6111b56060830185610eeb565b6111c26080830184610eeb565b9695505050505050565b60006020820190506111e16000830184610efa565b92915050565b6000815190506111f681610e49565b92915050565b60006020828403121561121257611211610e12565b5b6000611220848285016111e7565b91505092915050565b7f596f7520646f206e6f74206f776e2074686973204e4654000000000000000000600082015250565b600061125f601783610fed565b915061126a82611229565b602082019050919050565b6000602082019050818103600083015261128e81611252565b9050919050565b60006040820190506112aa6000830185610eeb565b6112b76020830184610eeb565b9392505050565b60008115159050919050565b6112d3816112be565b81146112de57600080fd5b50565b6000815190506112f0816112ca565b92915050565b60006020828403121561130c5761130b610e12565b5b600061131a848285016112e1565b91505092915050565b7f4d61726b6574706c616365206e6f7420676976656e20617070726f76616c0000600082015250565b6000611359601e83610fed565b915061136482611323565b602082019050919050565b600060208201905081810360008301526113888161134c565b9050919050565b7f4c697374696e673a205072696365204d7573742062652067726561746572207460008201527f68616e2030000000000000000000000000000000000000000000000000000000602082015250565b60006113eb602583610fed565b91506113f68261138f565b604082019050919050565b6000602082019050818103600083015261141a816113de565b9050919050565b7f54686973204974656d20697320616c7265616479206c697374656420666f722060008201527f73616c6500000000000000000000000000000000000000000000000000000000602082015250565b600061147d602483610fed565b915061148882611421565b604082019050919050565b600060208201905081810360008301526114ac81611470565b9050919050565b60006080820190506114c86000830187610eeb565b6114d56020830186610efa565b6114e26040830185610efa565b6114ef6060830184610eeb565b95945050505050565b7f4c697374696e673a204e6577205072696365204d75737420626520677265617460008201527f6572207468616e20300000000000000000000000000000000000000000000000602082015250565b6000611554602983610fed565b915061155f826114f8565b604082019050919050565b6000602082019050818103600083015261158381611547565b9050919050565b7f4c697374696e673a204e6577205072696365204d757374206265206c6573736560008201527f72207468616e204f6c6420707269636500000000000000000000000000000000602082015250565b60006115e6603083610fed565b91506115f18261158a565b604082019050919050565b60006020820190508181036000830152611615816115d9565b905091905056fea2646970667358221220932606546e6524d1039fcde215127bc0dc37ee29d3d376ee1c9de58f7289701264736f6c63430008110033",
  "devdoc": {
    "kind": "dev",
    "methods": {},
    "version": 1
  },
  "userdoc": {
    "kind": "user",
    "methods": {},
    "version": 1
  },
  "storageLayout": {
    "storage": [
      {
        "astId": 1718,
        "contract": "contracts/NFTMarketplace.sol:NFTMarketplace",
        "label": "listings",
        "offset": 0,
        "slot": "0",
        "type": "t_mapping(t_address,t_mapping(t_uint256,t_struct(Listing)1689_storage))"
      }
    ],
    "types": {
      "t_address": {
        "encoding": "inplace",
        "label": "address",
        "numberOfBytes": "20"
      },
      "t_mapping(t_address,t_mapping(t_uint256,t_struct(Listing)1689_storage))": {
        "encoding": "mapping",
        "key": "t_address",
        "label": "mapping(address => mapping(uint256 => struct NFTMarketplace.Listing))",
        "numberOfBytes": "32",
        "value": "t_mapping(t_uint256,t_struct(Listing)1689_storage)"
      },
      "t_mapping(t_uint256,t_struct(Listing)1689_storage)": {
        "encoding": "mapping",
        "key": "t_uint256",
        "label": "mapping(uint256 => struct NFTMarketplace.Listing)",
        "numberOfBytes": "32",
        "value": "t_struct(Listing)1689_storage"
      },
      "t_struct(Listing)1689_storage": {
        "encoding": "inplace",
        "label": "struct NFTMarketplace.Listing",
        "members": [
          {
            "astId": 1686,
            "contract": "contracts/NFTMarketplace.sol:NFTMarketplace",
            "label": "owner",
            "offset": 0,
            "slot": "0",
            "type": "t_address"
          },
          {
            "astId": 1688,
            "contract": "contracts/NFTMarketplace.sol:NFTMarketplace",
            "label": "price",
            "offset": 0,
            "slot": "1",
            "type": "t_uint256"
          }
        ],
        "numberOfBytes": "64"
      },
      "t_uint256": {
        "encoding": "inplace",
        "label": "uint256",
        "numberOfBytes": "32"
      }
    }
  }
}